:020000040000FA
:100000009E01872893008510051005108316851022
:10001000051005100F308605831213089E182D2831
:100020003A308D00FC3051203330920041201030A6
:100030008D006830512041206430502022309200E1
:10004000412028302C200C302C2001302C20063070
:100050002C209E1413082D281E1492001E1C3B28D1
:100060000510033C031C4028402007308D00D03091
:100070005120031408001E14FE3C031982280514A5
:100080001E1C1E1085140F3086051208F0398604D8
:100090008510920E1E18412832305020031408009B
:1000A0008D01E83E8C008D09FC30031C5A288C071A
:1000B000031857288C0764008D0F57280C186028E8
:1000C0008C1C64280000642808000038031DFF30E1
:1000D0000405031DFF308228103094008D018C012F
:1000E000930C920C031C7A280E088C070F08031837
:1000F0000F0F8D078D0C8C0C910C900C940B7028AD
:1001000010088228831303138312640008008316E7
:100110001C308500F030860083120130AC00FF30C7
:10012000AA002B13FE30022001300220FE300220F4
:100130000E30022005192B14051D2B1085192B15C7
:10014000851D2B11051A2B16051E2B1203012B18CA
:10015000FF30A4000301AB1CFF30A600240884007C
:1001600026086520A600A7006400260827040319B6
:10017000D62864002C08013C031DC0283330AA0097
:1001800064002C08023C031DC7283630AA00640016
:100190002C08043C031DCE283930AA0064002C082A
:1001A000083C031DD5282330AA002B1703012B1967
:1001B000FF30A4000301AB1DFF30A600240884001B
:1001C00026086520A600A700640026082704031956
:1001D000062964002C08013C031DF0283230AA00D7
:1001E00064002C08023C031DF7283530AA00640087
:1001F0002C08043C031DFE283830AA0064002C089B
:10020000083C031D05293030AA002B1703012B1AC7
:10021000FF30A4000301AB1EFF30A60024088400B9
:1002200026086520A600A7006400260827040319F5
:10023000362964002C08013C031D20293130AA0016
:1002400064002C08023C031D27293430AA006400F6
:100250002C08043C031D2E293730AA0064002C080A
:10026000083C031D35292A30AA002B172C089200C0
:10027000930102308E008F016C20AC0064002C08CA
:10028000103C031D45290130AC005E2164002A08A2
:10029000FF3C03194D292A0802202C0886002B1840
:1002A000AB142B1CAB102B19AB152B1DAB112B1A40
:1002B000AB162B1EAB12FF30AA009A2864002B1F2E
:1002C00084290F30AC0003012B1CFF30A400030174
:1002D0002B1DFF30A6002408840026086520A600F8
:1002E000A70003012B1EFF30A80026082704840066
:1002F00028086520A800A90064002808290403191B
:0A03000084290130AC002B13080023
:02400E00FD3F74
:00000001FF
