:020000040000FA
:100000009E01712893008610061006108316861034
:10001000061006100F308605831213089E182D282F
:100020003A308D00FC3051203330920041201030A6
:100030008D006830512041206430502022309200E1
:10004000412028302C200C302C2001302C20063070
:100050002C209E1413082D281E1492001E1C3B28D1
:100060000610033C031C4028402007308D00D03090
:100070005120031408001E14FE3C03196C280614BA
:100080001E1C1E1086140F3086051208F0398604D7
:100090008610920E1E18412832305020031408009A
:1000A0008D01E83E8C008D09FC30031C5A288C071A
:1000B000031857288C0764008D0F57280C186028E8
:1000C0008C1C64280000642808000038031DFF30E1
:1000D0000405031DFF306C2883130313831264008F
:1000E00008008316183085008601FE308312022036
:1000F00001300220FE300220A6300220FE30022015
:10010000873002200A30A8000730AA00FE30022003
:1001100087300220583002200518AB14051CAB10A4
:100120008518AB15851CAB110519AB16051DAB1257
:100130000301AB18FF30A40003012B1DFF30A60004
:100140002408840026086520A600A700640026086D
:1001500027040319AC2810210301AB19FF30A400B8
:1001600003012B1EFF30A60024088400260865200A
:10017000A600A7006400260827040319C0281B2135
:100180000301AB1AFF30A40003012B1FFF30A600B0
:100190002408840026086520A600A700640026081D
:1001A00027040319D42826216400AB1FFD2864000E
:1001B0002B18DF28A901FE30022010300220640035
:1001C0002B1CED285830A900FE30022080302A0771
:1001D000A400A501A50D24080220AD0A64002D0885
:1001E000023C031DF528AB13AD0183102B1C8314B7
:1001F00083182B14831C2B10AC146400AC1C032933
:1002000029080220AC10AB182B15AB1C2B11AB1915
:100210002B16AB1D2B12AB1A2B17AB1E2B138C28D6
:1002200064001230280203181A29FE3002201C3004
:100230000220A80A0800640004302802031C2529B3
:10024000FE30022018300220A803080064002C1C95
:100250002C294030AA022E294030AA0703012C1C69
:0E026000013E03192C10031D2C14AB170800CF
:02400E00FD3F74
:00000001FF
