:020000040000FA
:100000009E017E2893008610061006108316861027
:10001000061006100F308605831213089E182D282F
:100020003A308D00FC305E20333092004120103099
:100030008D0068305E20412064305D2022309200C7
:10004000412028302C200C302C2001302C20063070
:100050002C209E1413082D281E1492001E1C3B28D1
:100060000610033C031C4028402007308D00D03090
:100070005E20031408001E14FE3C031979280614A0
:100080001E1C1E1086140F3086051208F0398604D7
:100090008610920E1E18412832305D20031408008D
:1000A0008F018E00FF308E07031C8F07031C7928F9
:1000B00003308D00DF305E2052288D01E83E8C0039
:1000C0008D09FC30031C67288C07031864288C07F3
:1000D00064008D0F64280C186D288C1C712800009A
:1000E000712808000038031DFF300405031DFF3090
:1000F00079288313031383126400080083160730E2
:1001000085000C30860083124C30AF003530A400DF
:100110003630A5003730A6003830A700FE30022068
:1001200080302F07A800A901A90D28080220240863
:100130000220250802202608022027080220051890
:100140002E14051C2E1085182E15851C2E11051930
:100150002E16051D2E1203012E18FF30A8000301D4
:10016000AE1CFF30AA00280884002A087220AA00CA
:10017000AB0064002A082B040319C5280301AE1F35
:10018000013E0319AE13031DAE1703012E19FF30F4
:10019000A8000301AE1DFF30AA00280884002A0829
:1001A0007220AA00AB0064002A082B040319E4287B
:1001B0006400AE1FE428AF0AB00A64002F08503C68
:1001C000031DE4284C30AF0003012E1AFF30A800B5
:1001D0000301AE1EFF30AA00280884002A087220FE
:1001E000AA00AB0064002A082B040319FD28640050
:1001F000AE1FFD282E17302149216400AE1F0129B2
:10020000612164002E1F1429FE30022080302F0748
:10021000A800A901A90D280802203008243E840066
:100220000008A8002808022064002C08C83C031D10
:100230001A29AC0164003008043C031D2029B001D8
:100240002E132E18AE142E1CAE102E19AE152E1D08
:10025000AE112E1AAE162E1EAE12013050209F285F
:1002600064002F084C3C031D3629A40A64002F08A3
:100270004D3C031D3C29A50A64002F084E3C031D7C
:100280004229A60A64002F084F3C031D4829A70AEB
:100290000800AD01640004302D02031860292D0808
:1002A000243E84000008A800640028083A3C031D8E
:1002B0005E292D08243E840030308000AD0F4A298D
:1002C0000800AC0A64002C08643C031D7429FE304D
:1002D000022080302F07A800A901A90D28080220BC
:1002E000FE3002200E30022064002C08C83C031DA2
:0C02F0007D29FE3002200C3002200800A6
:02400E00FD3F74
:00000001FF
